:020000040800F2
:1000000090070020D501000831070008D906000834
:100010002D070008B5050008EB0E000800000000E1
:10002000000000000000000000000000510B00086C
:10003000B905000800000000D5090008650C00089B
:10004000EF010008EF010008EF010008EF010008D0
:10005000EF010008EF010008EF010008EF010008C0
:10006000EF010008EF010008EF010008EF010008B0
:10007000EF010008EF010008EF010008EF010008A0
:10008000EF010008EF010008EF010008EF01000890
:10009000EF010008EF010008EF010008EF01000880
:1000A000EF010008EF010008EF010008EF01000870
:1000B000EF010008EF010008EF010008EF01000860
:1000C000EF010008EF010008EF010008EF01000850
:1000D000EF010008C90C0008EF010008EF0100085B
:1000E000EF010008EF010008EF010008EF01000830
:1000F000EF010008EF010008EF010008EF01000820
:10010000EF010008EF010008EF010008EF0100080F
:10011000EF010008EF010008EF010008EF010008FF
:10012000EF010008EF010008EF010008EF010008EF
:1001300000F002F800F03FF80AA090E8000C8244BA
:100140008344AAF10107DA4501D100F034F8AFF297
:10015000090EBAE80F0013F0010F18BFFB1A43F0A5
:10016000010318476C0F00008C0F0000103A24BFE9
:1001700078C878C1FAD8520724BF30C830C144BF0C
:1001800004680C607047000000230024002500264E
:10019000103A28BF78C1FBD8520728BF30C148BFEA
:1001A0000B607047642900F06B80002070471FB51A
:1001B0001FBD10B510BD00F0B1F91146FFF7F7FFF4
:1001C00000F01CFF00F0CFF903B4FFF7F2FF03BC0F
:1001D00000F094FE0948804709480047FEE7FEE723
:1001E000FEE7FEE7FEE7FEE7FEE7FEE7FEE7FEE7E7
:1001F00004480549054A064B70470000690C000891
:100200003101000890010020900700209003002099
:1002100090030020704700000FB4044910B503AAF2
:10022000029800F04DF910BC5DF814FB2C00002082
:1002300070B5044685690068C10601D5302600E026
:100240002026C00707D070BDD4E901213046904771
:10025000206A401C20626D1EF6D570BD70B5044644
:1002600085690078C00707D170BDD4E9012120203D
:100270009047206A401C20626D1EF6D570BD0000BC
:100280002DE9F0410646002410687529314616A56F
:1002900010D0AFF30080002802DA404213A507E037
:1002A00031688A0701D512A502E0490704D511A5D6
:1002B000012401E0AFF3008000210A2206F12407A7
:1002C00009E0B0FBF2FCB0FBF2F302FB1C003030A3
:1002D00078541846491C0028F3D123462A46304654
:1002E000BDE8F04100F093B8000000002D000000D0
:1002F0002B000000200000002DE9F0474FF0000A1D
:1003000089460446C0F820A02046E16888470028B6
:1003100076D0252806D0D4E901219047206A401CD8
:100320002062F1E7E168204600258847C4F81CA058
:1003300006460027C4F818A02A2E09D0304600F03F
:10034000D6FD38B304EB8708303EC8F8186019E0D2
:1003500059F8041B204604EB87029161E168884745
:10036000012F064618D1E069002820DA25F0200583
:100370001DE0D8F8180000EB800006EB4000303894
:10038000C8F818002046E1688847064600F0AFFD2F
:100390000028EED1012F0AD02E2E08D12046E16888
:1003A00088477F1C0646022F45F02005C4DBA06964
:1003B000002803DA404245F00105A061E80701D0BA
:1003C00025F01005B6B1A6F14100192802D8203653
:1003D00045F400654A463146204625604D46FFF704
:1003E000E1FE58B1012806D0ED1D25F0070000F10F
:1003F000080989E704E005F1040985E730468AE742
:10040000206ABDE8F08770477047704770472DE954
:10041000F0470D4699469246044600F124080168CB
:10042000880604D5E06921F01001216000E0012078
:10043000A84201DD471B00E00027A1697A1902EB01
:100440000900081AA0612078C00602D42046FFF7F0
:10045000EFFE002608E0D4E901211AF806009047D3
:10046000206A401C761C20624E45F4DB2078C006D2
:100470000AD52046FFF7DCFE06E0D4E90121302052
:100480009047206A401C2062381EA7F10107F4DC67
:1004900007E0D4E9012118F805009047206A401CC4
:1004A0002062281EA5F10105F3DC2046FFF7D6FEE9
:1004B0002078000602D50220BDE8F0870120FBE786
:1004C000074B70B50D467B4400F011F804462846F2
:1004D00000F020F810B14FF0FF3070BD204670BD25
:1004E000170B000001694A1C02610878704700B5CB
:1004F0008FB0CDE901310021059105497944CDE95D
:10050000031011466846FFF7F7FE0FB000BD00006C
:10051000E5FFFFFF007B00F080007047754600F0AC
:1005200029F8AE4605006946534620F00700854687
:1005300018B020B5FFF75CFEBDE820404FF0000684
:100540004FF000074FF000084FF0000B21F00701BB
:10055000AC46ACE8C009ACE8C009ACE8C009ACE8FE
:10056000C0098D4670470446AFF300802046FFF770
:100570002BFE0000004870472C01002008B5012127
:10058000082000F06BFA4FF48070ADF800001020E6
:100590008DF8030003208DF802006946044800F03E
:1005A0000CF84FF48071024800F092F808BD00008A
:1005B000000C014000BFFEE770472DE9F041024604
:1005C00000250026002000230024002791F803C006
:1005D0000CF00F0591F803C00CF0100CBCF1000FEB
:1005E00003D091F802C04CEA050591F800C0BCF1B7
:1005F000000F31D0146800202BE04FF0010C0CFAF2
:1006000000F3B1F800C00CEA03069E4220D183003B
:100610004FF00F0C0CFA03F7BC4305FA03FC4CEA4D
:10062000040491F803C0BCF1280F06D14FF0010C6F
:100630000CFA00FCC2F814C00AE091F803C0BCF147
:10064000480F05D14FF0010C0CFA00FCC2F810C0A5
:10065000401C0828D1D31460B1F800C0BCF1FF0FD2
:1006600034DD546800202EE000F1080C4FF0010842
:1006700008FA0CF3B1F800C00CEA03069E4221D13F
:1006800083004FF00F0C0CFA03F7BC4305FA03FC90
:100690004CEA040491F803C0BCF1280F05D100F125
:1006A000080C08FA0CF8C2F8148091F803C0BCF1E9
:1006B000480F07D100F1080C4FF0010808FA0CF8B8
:1006C000C2F81080401C0828CED35460BDE8F081E9
:1006D000416170470161704700BFFEE708B5012125
:1006E000242000F0BBF94FF48070ADF8000010201A
:1006F0008DF8030003208DF8020069460948FFF7D2
:100700005CFF4FF480710748FFF7E4FF0420ADF869
:10071000000069460448FFF750FF04210248FFF734
:10072000D9FF08BD000801400014014000BFFEE7EA
:100730007047000070B5002100230F22C47804B375
:10074000154C246804F4E064C4F5E064210AC1F1A6
:100750000403CA40447804FA03F184781440214326
:1007600009010E4C0678A155047804F01F050124F8
:10077000AC4005786D11AD0005F1E025C5F80041EC
:1007800009E0047804F01F050124AC40044D06780C
:10079000761145F8264070BD0CED00E000E400E065
:1007A00080E100E002490143024A11607047000005
:1007B0000000FA050CED00E001460148405C70477E
:1007C00020010020002004E00021034A1154411CB4
:1007D000C8B20928F8DB70472001002038B504466C
:1007E0000120009000201C494870012000902EE05C
:1007F000BDF80000204018B101201849086002E04F
:100800000020164908600120144908310860322090
:1008100000F0C0FB00201249C1F88C01322000F02A
:10082000B9FB01200E49C1F88C010846D0F800013F
:1008300030B109484078BDF80010084306494870B7
:10084000BDF800004FF6FF7101EA40000090BDF8CE
:100850000000FF28CCDD38BD2001002084012242A9
:100860000000224210B5FFF7ADFF00F05BF80F4823
:10087000C0780E49097940EA01200D49088000241A
:100880000FE00C4810F81400401E012101FA00F09E
:1008900007490988084010B9601CC0B210BD601C2F
:1008A000C4B2102CEDDB0020F8E70000200100208E
:1008B000320000203600002010B51748806940F053
:1008C000100015498861154800686FF3130013493B
:1008D0000860084600681249084310490860084645
:1008E000C06840F01000C8600846C06840F00800CA
:1008F000C8600846C06840F00400C8600846C06888
:1009000040F00200C8600846C06840F00100C860BE
:100910000A2000F019FB10BD001002400010014039
:10092000383308001CB50020019001200090002001
:100930002449086024490878FFF750FF2249487885
:10094000FFF74CFF0220019033E00120009024E0EB
:1009500001201C49091D086000201C49C1F88C01B8
:10096000322000F017FB01201849C1F88C0108461D
:10097000D0F8000150B116489DF80410405CBDF855
:100980000010084312499DF804208854BDF8000067
:100990004FF6FF7101EA40000090BDF80000FF280B
:1009A000D6DD322000F0F6FA9DF80400401CC0B2FB
:1009B00001909DF804000928C7DB01200149086067
:1009C0001CBD0000880122423400002000002242A9
:1009D0002001002070470000F8B5FFF743FF1249DF
:1009E00008700846007820B1084601780FA0FFF78C
:1009F00013FC0620FFF7E0FE04460520FFF7DCFEAF
:100A000005460820FFF7D8FE06460720FFF7D4FE6C
:100A100007462B46324639460BA00094FFF7FCFBF5
:100A2000642000F091FAF8BD5600002020200D0A45
:100A30002020202564202069732020707265737344
:100A4000656420200D0A00002025356420253564CA
:100A500020253564202535640D0A000029B1064A99
:100A600092690243044B9A6104E0034A926982430B
:100A7000014B9A61704700000010024030B5002120
:100A80000022002400232D4D6D6805F00C0121B1DA
:100A9000042905D0082923D105E0294D056022E06D
:100AA000274D05601FE0254D6D6805F47012234D3C
:100AB0006D6805F48034022505EB92421CB9214D86
:100AC000554305600BE01D4D6D6805F400351DB103
:100AD0001C4D5543056002E0194D5543056002E089
:100AE000174D056000BF00BF144D6D6805F0F001A3
:100AF0000909154D6B5C0568DD4045600F4D6D685B
:100B000005F4E061090A104D6B5C4568DD408560C5
:100B10000A4D6D6805F46051C90A0B4D6B5C456860
:100B2000DD40C560054D6D6805F44041890B074DFA
:100B30006B5CC568B5FBF3F5056130BD0010024084
:100B400000127A0000093D0014000020240000205B
:100B5000704710B500F002F810BD00000CB5002081
:100B6000019000903348006840F4803031490860BB
:100B700000BF3048006800F4003000900198401C2D
:100B80000190009818B90198B0F5A06FF1D12948EB
:100B9000006800F4003010B10120009001E0002056
:100BA00000900098012843D12348006840F01000CD
:100BB000214908600846006820F0030008600846E4
:100BC000006840F0020008601A484068194948600F
:100BD0000846406848600846406840F480604860C5
:100BE0000846406820F47C1048600846406840F49D
:100BF000E81048600846006840F08070086000BF58
:100C00000C48006800F000700028F9D009484068DE
:100C100020F00300074948600846406840F00200A1
:100C2000486000BF0348406800F00C000828F9D174
:100C30000CBD00000010024000200240042808D132
:100C40004FF0E021096941F004014FF0E022116109
:100C500007E04FF0E021096921F004014FF0E022A4
:100C6000116170477047000010B51348006840F0EC
:100C700001001149086008464068104908400E49C3
:100C80004860084600680E4908400B49086008465D
:100C9000006820F4802008600846406820F4FE00C8
:100CA00048604FF41F008860FFF753FF4FF000606B
:100CB0000449086010BD0000001002400000FFF869
:100CC000FFFFF6FE08ED00E010B540F225511D488B
:100CD00000F04AF810B31B4800F002F9C4B21A48F9
:100CE000008800F40040C8B91748008800F480402C
:100CF00060B10A2C03D000201349088020E012487C
:100D0000008840F400401049088019E00D2C06D1FD
:100D10000D48008840F480400B49088010E00A48E4
:100D20000088C0F30D0009490C5407480088401C96
:100D30000549088008460088C72801DD0020088092
:100D400010BD000000380140300000205800002095
:100D500021B1828942F40052828104E082894DF6F9
:100D6000FF731A408281704770B502460024002349
:100D70000025002040F66A16B14200D100BFC1F341
:100D8000421501F01F03012606FA03F3012D02D1DB
:100D90009689334006E0022D02D1168A334001E0E5
:100DA000968A33400C12012606FA04F41688344061
:100DB00013B10CB1012000E0002070BDF0B5034676
:100DC000002400260025002040F66A17B94200D111
:100DD00000BF1846C1F3421401F01F06012707FAAD
:100DE00006F5012C01D10C3004E0022C01D11030A9
:100DF00000E014301AB107682F43076002E007686B
:100E0000AF430760F0BD00002DE9F04786B005460E
:100E10000E460024A24600BFA1460027B08900B1BB
:100E200000BF2F462C8A4CF6FF700440F088044324
:100E30002C82AC894EF6F3100440B0883189084307
:100E4000718908430443AC81AC8A4FF6FF400440EB
:100E5000B0890443AC8201A8FFF710FE1F48874207
:100E600002D1DDF810A001E0DDF80CA0A88900F4A3
:100E7000004040B10AEBCA0000EB0A10316849009B
:100E8000B0FBF1F807E00AEBCA0000EB0A1031688A
:100E90008900B0FBF1F86420B8FBF0F004012009F0
:100EA000642101FB1089A88900F4004040B1322080
:100EB00000EBC900B0FBF1F000F00700044308E0CC
:100EC000322000EB09106421B0FBF1F000F00F00BC
:100ED00004432C8106B0BDE8F087000000380140D3
:100EE00001468888C0F30800704700BFFEE730382D
:100EF0000A2801D20120704700207047014600BF38
:100F00007047000010B56FF00400FFF797FE0A4825
:100F100000680A49B0FBF1F00949087008460078FA
:100F200000EB4001C1EBC0104FF6FF7101EAC000B9
:100F30000449088010BD00000000002000127A0063
:100F4000280000202A0000200146114A12884A4346
:100F50004FF0E0235A6100229A611A46126942F06A
:100F600001021A6100BF4FF0E022106900F0010297
:100F70001AB100F48032002AF5D04FF0E022126955
:100F800022F001024FF0E0231A6100229A617047BB
:100F90002A0000200146114A12784A434FF0E0230C
:100FA0005A6100229A611A46126942F001021A61DE
:100FB00000BF4FF0E022106900F001021AB100F406
:100FC0008032002AF5D04FF0E022126922F00102AF
:100FD0004FF0E0231A6100229A6170472800002038
:100FE00000BF054A128802F04002002AF9D0C2B2BE
:100FF000014B1B1D1A80704700380140FFF782FF2C
:101000004FF4A060FFF7CEFB4FF4E13000F010F892
:10101000FFF752FCFFF7B2FAFFF760FB04E0002095
:1010200002490860FFF7D8FCF9E70000A00121425F
:1010300010B586B00446012144F20400FFF70EFD0E
:101040004FF40070ADF8140003208DF8160018203E
:101050008DF8170005A91C48FFF7AFFA4FF4806020
:10106000ADF8140004208DF8170005A91648FFF705
:10107000A4FA25208DF8000003208DF801008DF8DA
:10108000020001208DF803006846FFF753FB01942E
:101090000020ADF80800ADF80A00ADF80C00ADF87E
:1010A00010000C20ADF80E0001A90848FFF7ACFEB7
:1010B000012240F225510548FFF780FE0121034837
:1010C000FFF746FE06B010BD0008014000380140A1
:1010D000F010000800000020580000006C0100081B
:1010E0004811000858000020380700008801000857
:1010F00000A24A04000000000000000001020304F6
:1011000006070809000000000102030401020304AD
:10111000060708090204060800000000000000009D
:10112000000000000142010002000300040005006D
:1011300006000700080009000A000B000C000D0063
:081140000E000F00100000007A
:0400000508000131BD
:00000001FF
